:020000040800F2
:10000000C0120020A10A00085D0900088D0A00083E
:1000100000000000000000000000000000000000E0
:10002000000000000000000000000000B10B00080C
:100030000000000000000000650B0008C91E000859
:10004000E10C0008E10C0008E10C0008E10C0008DC
:10005000E10C0008E10C0008E10C0008E10C0008CC
:10006000E10C0008E10C0008E10C0008E10C0008BC
:10007000E10C0008E10C0008E10C0008E10C0008AC
:10008000E10C0008E10C0008E10C0008E10C00089C
:10009000E10C0008E10C0008E10C0008E10C00088C
:1000A000E10C0008E10C0008E10C0008E10C00087C
:0C00B000E10C0008E10C0008E10C000865
:1000BC0002B4714649084900095C49008E4402BCEF
:1000CC007047C046002934D00123002210B4884266
:1000DC002CD301242407A14204D2814202D209016B
:1000EC001B01F8E7E400A14204D2814202D249008C
:1000FC005B00F8E7884201D3401A1A434C08A0422F
:10010C0002D3001B5C0822438C08A04202D3001BC4
:10011C009C082243CC08A04202D3001BDC082243DB
:10012C00002803D01B0901D00909E3E7100010BC1B
:10013C00704701B5002000F00BF802BD0029F8D083
:10014C0003B5FFF7C1FF0EBC4243891A1847C046DE
:10015C007047C0461C2101231B04984201D3000C9C
:10016C0010391B0A984201D3000A08391B0998421E
:10017C0001D30009043902A2105C40187047C04634
:10018C000403020201010101000000000000000054
:10019C00002B11D1002A0FD1002900D1002802D048
:1001AC000021C943080007B4024802A1401802907C
:1001BC0003BDC0469DFFFFFF03B4684601B502981E
:1001CC0000F04CF8019B9E4602B00CBC7047C04638
:1001DC00D0400B00D1409C46203AD34018435242A9
:1001EC0063469340184370479140030090409C46EF
:1001FC00203A9340194352426346D3401943704707
:10020C0010B5002903D1FFF7A5FF203002E008004C
:10021C00FFF7A0FF10BDC046F7B5040C0D0091B25E
:10022C000F0061438C460600019383B2100C5F43B0
:10023C00444358433B0C60441B18994202D980211B
:10024C0049026418019955437143180C04191B0495
:10025C00BFB24919D819091903B0F0BDF0B50600A1
:10026C000F0015001C0085B08B4263D801D182426F
:10027C0060D821002800FFF7C3FF39000090300040
:10028C00FFF7BEFF009B21001B1A1A0028000393E6
:10029C00FFF7AAFF00900191B94245D801D1B042B5
:1002AC0042D8009B019C01200021039AF61AA74119
:1002BC00FFF79AFF04000D00039B002B2BD0019B32
:1002CC00009ADB0750081843019B5908039B9C4676
:1002DC00B9422CD801D1B04229D832003B00121AB5
:1002EC008B41012692185B410027B6185F41012310
:1002FC005B429C446346002BEAD130003900039AE0
:10030C00FFF766FF039AA4197D4106000F00FFF763
:10031C006BFF241A8D410A9B002B01D01E605F607D
:10032C002000290005B0F0BD00240025C4E7B61953
:10033C007F41DCE700240025EDE70000F0B5204B01
:10034C00204A1B88126887B09918029100211E4E12
:10035C009B1A3488039313190493A31A05931B4B0C
:10036C0001911F689968BC46029F0D005868D968B6
:10037C0067451DDD039FAF421ADA049F87420ADBF3
:10038C00844208DC0023801A114A30801360114A21
:10039C00137007B0F0BD0598884209DA8C4207DB70
:1003AC0089180022084B1980094B1A600123EEE7CB
:1003BC0001991033013101910929D2D1F6E7C046D8
:1003CC0026020020D000002024020020DC000020A7
:1003DC007C0400202A020020F7B5134B134D1E8815
:1003EC00134B28881C68134A031B9C46124B071995
:1003FC0001925A68964212DDDA6896420FDA196851
:10040C009A688F4204DD884202DA091B2980F7BD05
:10041C00944504DA904202DD12192A80F7E7019A1A
:10042C0010339342E5D1F2E724020020260200208B
:10043C00D00000206C010020DC00002010B50E481C
:10044C000E4B0278002A08D00D4C19882268891AA4
:10045C0019800C490968521A22600B4A19881468D1
:10046C000A4A09191268914205DB121B1A800022F4
:10047C00034B02701A6010BD2A02002024020020D7
:10048C007C040020C8000020D0000020D4000020F4
:10049C00074B1968074B1A888A4200DC1980064AF8
:1004AC0018881268521A904200DD1A807047C046B4
:1004BC00D000002026020020D80000200020F0B53B
:1004CC000F4B104A104E1D88126834880F4BAF1812
:1004DC00A418AD1A19688F420DDD99688D420ADA9D
:1004EC0059688C4207DB891A0022094B31801A604B
:1004FC00084B1A70F0BD013010330928EAD1F9E726
:10050C0022020020D000002020020020DC0000206D
:10051C00780400202802002010B50E480E4B0278FB
:10052C00002A08D00D4C19882268891A19800C49A8
:10053C000968521A22600B4A198814680A4A091968
:10054C001268914205DB121B1A800022034B0270C9
:10055C001A6010BD28020020200200207804002020
:10056C00BC000020D0000020D4000020054A064B1F
:10057C001068064A1B6811881B1A994200DD13800B
:10058C007047C046D0000020D80000202202002076
:10059C00F0B59448A5B003F03EF8934803F098FDED
:1005AC00002806D1914803F036F80120404225B0CE
:1005BC00F0BD8F4B00251C000393206803F088FDD1
:1005CC00002804D129008B4803F025F8EDE7E788D3
:1005DC00894B20683B4321790593012683688E4023
:1005EC009C4603691A68029301230492B2431F428A
:1005FC0001D0049A3243029B01351A606346059A76
:10060C001B68984708340C2DD7D17C4803F003F8AD
:10061C000024039D28682E790769836810A95B68FC
:10062C009847002807D10130B040109B3A685340DE
:10063C001840431E9841A20018AB0134D050083525
:10064C000C2CE7D1189A6E496E48002A0FD16E4CCB
:10065C006E4D24682D680A88641BA5B2A24203DA89
:10066C006B4C2468121995B201220D8002705A68E5
:10067C00002A09D10A88002A03D0654C2468121B71
:10068C0092B20A8000220270DA68002A09D161490C
:10069C000A78002A05D16048604A0068106001227F
:1006AC000A709A695E49002A0DD15748574C006868
:1006BC0024680A88001B84B2824203DA5948006815
:1006CC00121894B20C80DA69002A07D10A88002A21
:1006DC0003D054480068121A92B20A805B6A002B4D
:1006EC0008D1514B1A78002A04D10A214F4A1160C3
:1006FC0001221A70FFF7A2FEFFF720FEFFF76CFE37
:10070C00FFF7C6FEFFF708FFFFF7D8FEFFF72EFF37
:10071C00474E434C3A4D3788464A238829880292E3
:10072C0045481288009702F076FF364B2F881B78CD
:10073C0025880493029B36881C882B4B1800029347
:10074C0003F0C6FC002808D13C4802F064FFFA20F4
:10075C000021400002F0CCF85AE72220049BBF0590
:10076C009B02BF0D1F4304AB0E220021C01803F0E7
:10077C00D9FE334B0E210B9380233604354304A84A
:10078C00BFB20BAE9B00240407AA3C430918B380EC
:10079C002B0C13801291230C08A99380149110AB8D
:1007AC0012215580D4801092099302220423091837
:1007BC00119213921592169117920A93029B310083
:1007CC009B6802981F6809AA0023B847011E03D032
:1007DC001C4802F020FFBAE722002B001A4802F056
:1007EC001AFFB4E75A4A0008A44600086B4A0008EE
:1007FC00D8470008964A000810000100C14A0008BA
:10080C002602002029020020D8000020D000002061
:10081C00CC0000202A020020C40000207C04002010
:10082C0022020020C00000202802002078040020B2
:10083C002002002024020020F14A0008724A00081D
:10084C0080969800124B0008284B000810B5024BFC
:10085C001B68984710BDC0466C010020014B186006
:10086C007047C0466C01002030B585B004000D0007
:10087C0010220021684603F055FE6A46022393704D
:10088C00044B2A0021006846019302F0F3FB05B0EB
:10089C0030BDC04659080008F7B504000D001E0015
:1008AC00019202F043F8030003F044FE054F3200BE
:1008BC003B5001992800A04703F03CFE385800F04B
:1008CC00FDF8C04608000000802102200A4BC90335
:1008DC009A6982B00A439A619A690A40074901925F
:1008EC00019A4A68824300204A609A6904490A4086
:1008FC009A6102B07047C046001002400058014097
:10090C00FFFFBFFF1023044A002011680B43136044
:10091C00024B034A1A607047002002401402002068
:10092C0000127A000649074A10B5521A064803F01D
:10093C00F0FD0321054A13680B43136010BDC0463C
:10094C0000000008BC00000800000020000001406E
:10095C0010B5034B1B68984700F022F810BDC04639
:10096C007001002030BFFDE7F7B50A4B0A4D0600B9
:10097C00EF18CC1B2A0020000849019303F0C9FD95
:10098C0060190021019A03F0CDFD3800083CB466D3
:10099C000830FEBD0400000000000000B047000855
:1009AC00074A9368997B7F2908D85269934205D0EE
:1009BC008023044A5B0551680B4353607047C04663
:1009CC008405002000ED00E070B5224B0C005B6844
:1009DC0088B0DB05DB0D62B6BFF36F8F0025160EFA
:1009EC002900FF2E09D1F33E1640082E05D0010038
:1009FC000135120701D5210000250024032B14D149
:100A0C008B69154A934202D3144A934206D3144A73
:100A1C000024934209D3134A934206D2023B1A880C
:100A2C00114B00249A4200D10C682022684603F036
:100A3C0070FD079B002D0AD0DA0502D10B4A134337
:100A4C0007936946200002F0F2FD08B070BD5B0A06
:100A5C005B02F5E700ED00E0BC0000084C45000827
:100A6C00BC000020BC00002002DF0000FF010000E1
:100A7C000821024A53698B435361704700ED00E033
:100A8C00EFF30880EFF3098101B57246FFF79CFF85
:100A9C0001BDC04672B607480749401880F3098863
:100AAC00EFF314800221084380F31488BFF36F8F97
:100ABC0002F0D1FDC00500200008000010B50A4B63
:100ACC009B6883420DD1EFF30583002B09D0802264
:100ADC00064B520559680A435A605A6A04490A403F
:100AEC005A6203F0F4FB10BD8405002000ED00E019
:100AFC00FF7FFFFF0B21084A494293681967D866AC
:100B0C00802306495B05486803434B6062B6BFF31C
:100B1C006F8F9368186F70478405002000ED00E01C
:100B2C00EFF3108372B68021084A0905536993606C
:100B3C00074A5160996E074A11600021DA6ED96636
:100B4C008A4202D162B6BFF36F8F704784050020D2
:100B5C0000ED00E08004002010498A681048104421
:100B6C00EFF3098CF0C043464C4655465E4667464B
:100B7C00F8C074467046FFF7D3FFA64607498A684B
:100B8C00074C10191030F8C89846A146AA46B3462F
:100B9C00BC462438F0C88CF30988704784050020C3
:100BAC003000000004207146014202D0EFF30980AE
:100BBC0001D1EFF308808169023909780229FFD04D
:100BCC0001B502F03CFD01BD43B2000605D41F2265
:100BDC001A4001239340014A1360704700E100E082
:100BEC0030B5FF2503220B00290040B20240D20091
:100BFC0091409B012B40C943934000280ADBC02441
:100C0C000A4A800880008018A40002590A40134345
:100C1C00035130BD0F2210400838054A800880006F
:100C2C008018C26911401943C161F2E700E100E08C
:100C3C0000ED00E010B5203A1360029B01245360D4
:100C4C00039B06499360049BA143D36080235B0400
:100C5C00D361002391610265C36610BDA50800082D
:100C6C0070B5094B0E009860816E084B1500196029
:100C7C002C1C86F309880020054B9847201C00216A
:100C8C0000220023034C2047840500208004002010
:100C9C0079360008A50800081022014B1A6170472C
:100CAC0000ED00E0F0B5C02400220326FF25A400CF
:100CBC0010002F003040C0008740054993089B006E
:100CCC005B1819590132B94319511F2AF0D1F0BDE3
:100CDC0000E100E010B5EFF30583054A103BDB00A3
:100CEC00D118496898588847FFF75AFE10BDC0467E
:100CFC00B846000810B5024B1B689847002010BD81
:100D0C0084040020034B044A1860022391780B439F
:100D1C00937070478404002074010020072310B5E1
:100D2C000449054A99430548521A02F038FC002040
:100D3C0010BDC046C716002000800020880400208B
:100D4C0070B505000024012631002B781B19DAB28E
:100D5C0091400A4A50690840884208D108495061BC
:100D6C00DB005A58002A02D0C91849689047013450
:100D7C006B78E4B2A342E7D270BDC04600040140D8
:100D8C00940400200022052010B50C4C110020709A
:100D9C006070FFF725FF002206201100A070E070A4
:100DAC00FFF71EFF0C220721054803F0BBFB0022B6
:100DBC0007201100FFF714FF002010BD2B020020AC
:100DCC002F02002010B50400FF20002C05D02000BD
:100DDC00FFF7C0F91F23181AC0B2044B1856044B66
:100DEC001A6814431C60FFF7EFFE10BD2B020020A5
:100DFC0000040140024A1368834313607047C046E5
:100E0C0000040140020000B5080003290AD80E4B6B
:100E1C00FFF74EF902090C13996891439960D96850
:100E2C009143D96000BD99681143F7E7D968114324
:100E3C00D960996891439960F4E799681143996076
:100E4C00D9680A43DA60EDE70004014070B5FF236E
:100E5C000D001400002804D0FFF77CF91F231B1A87
:100E6C00DBB2094AD8008358AB4203D11118496848
:100E7C00A14204D0002B04D115501218546000204C
:100E8C0070BD10204042FBE794040020FF2310B5F6
:100E9C00002804D0FFF75EF91F231B1ADBB20021D8
:100EAC00024ADB009950D218516010BD9404002006
:100EBC00032310B50F2403409B009C409940044A27
:100ECC008008800080188268A2430A43826010BDAB
:100EDC0000000140032303408008054A02308000D3
:100EEC0080580F229B009A401040D8407047C04653
:100EFC00000001400B6813B51A00143A082A0CD8EC
:100F0C00074C48681B191A68024300201A600B68CA
:100F1C001B191B680193019B16BD86204042FBE701
:100F2C00001002400B681A00143A082A07D8002057
:100F3C00044A49689B181A688A431A6070478620CD
:100F4C004042FBE700100240F0B50A68082A24D89A
:100F5C00C5235B00D340DB071FD54B68FF2B1AD092
:100F6C00FF221C0007261F270D4814402418580B7D
:100F7C001B0A3B40304098402568854325604968F2
:100F8C0007480A400B0C090A334039408B401218B1
:100F9C001068034313600020F0BD86204042FBE73D
:100FAC000010024010B5164B086814001B68072887
:100FBC0012D008280AD800280ED0013807280BD8E0
:100FCC00FFF776F80E0D190D0A0A0A11182807D02A
:100FDC001C2805D0142803D08620404202E00023B0
:100FEC000020236010BD00F0BFF8002805D000F0F1
:100FFC00BBF80300F4E7034BF2E70520EDE7C0462E
:10100C0014020020409C00000B681A00143A082AB5
:10101C0008D8094A48689B181B68984343425841B2
:10102C000130704701221000082BFAD88A30FF30AB
:10103C00D84010408018F4E700100240F8B53B4D42
:10104C0000F096F8280002F026FB00F0FFFF384C69
:10105C00384A63682E001B061B0FD35CD8401378EC
:10106C0007001E41B04202D2300001F025F8802367
:10107C002268DB0213432360802322685B02134344
:10108C00236080239B0222681A42FCD00123626AEF
:10109C00134302226362636A1342FCD00C2163681F
:1010AC000B40082B16D12368134207D10123226869
:1010BC0013432360022322681A42FCD00322636884
:1010CC00934363600C2362681A42FCD1F02263687C
:1010DC00934363602368184A1340236000F032F88E
:1010EC00802322685B041343236080239B042268C3
:1010FC001A42FCD0F0226368934363600323626856
:10110C009A43013B13430C22636063681340082B22
:10111C00FBD1B74202D3300000F0CEFF074B084A98
:10112C001D606368002013406360F8BD006CDC0236
:10113C0000100240F04B0008FFFFFFFE14020020DD
:10114C00FFF8FFFF064B074A5968114088225203EB
:10115C000A430F215A60DA6A8A43DA627047C04642
:10116C0000100240FF7FC2FF00487047006CDC0299
:10117C0080210A4B4905DA6982B00A43DA61DA69DF
:10118C000A4001210192019A9A690A439A619B696A
:10119C000B400093009B02B07047C0460010024009
:1011AC0010B5084802F094FF002808D0064C200027
:1011BC00FFF7A8FD2000FFF751FB002010BD132006
:1011CC004042FBE790460008D911000870B50400B6
:1011DC00074D0A2804D1AB680D2128005B6898479D
:1011EC00AB6828005B68E1B29847200070BDC04630
:1011FC0090460008F7B547681E000369B86800926E
:10120C0001930C0002F044FA8023009A05009B0322
:10121C009A4215D12000BD68FFF75CFE85420DD1C6
:10122C002100280002F034FA0400FFF7E3FD20004F
:10123C00FFF72CFE00212000FFF7E4FD0020FEBD8F
:10124C008023009ADB039A4223D01449019AFFF7BA
:10125C00FDFD002820D18023DB049E4215D0C02345
:10126C00DB049E4213D0802316209B049E4211D196
:10127C0002262000B968FFF71BFE28003100FFF79B
:10128C00C1FD2800FFF79EFDD8E70126F1E70326F4
:10129C00EFE786204042D2E71020FBE74D380008EC
:1012AC0070B5036904005860094D280002F010FF66
:1012BC00002809D06168AB6828001B680C3198477E
:1012CC00002800DD002070BD13204042FBE7C04623
:1012DC00DC450008F7B504000025C900431801934C
:1012EC00019B9C4201D1002035E01F27102223686E
:1012FC001F40134217D1202562681543F8215A0963
:10130C0049000A40E239FF395B090B401343009353
:10131C001109F02A20D8114B8900CE58002E0AD181
:10132C001320404217E0102F03D0112FE6D165682F
:10133C00E4E73025E2E7300002F0CAFE0028EFD0E7
:10134C000F2300992A00194030003B0002F091FA5B
:10135C0008340028C4DAFEBD1620E2E7F048000885
:10136C0037B50269436810680C001D68D96883683A
:10137C00DB68002B0FD001AA984700280BDB2B68E9
:10138C00054A600813402B60019B2100C018FEF732
:10139C0099FE80B2E86037BDFF7FFFFF43681B6892
:1013AC00EFF31081012282F31088986802439A604F
:1013BC0081F310880C4A934205D00C4A934202D018
:1013CC000B4A934203D1402259680A435A60EFF307
:1013DC001081012282F310881868FF3202431A60D0
:1013EC0081F310887047C04600380140004400402B
:1013FC000048004043681B68EFF31080012181F323
:10140C0010889A688A439A6080F310880C4A934239
:10141C0005D00C4A934202D00B4A934203D140218F
:10142C005A688A435A60EFF31081012282F31088C4
:10143C0006481A6802401A6081F310887047C0464B
:10144C00003801400044004000480040FFFEFFFF10
:10145C00F7B50C00036941685D682379012B13D043
:10146C009A1E56427241920200926679022E0ED852
:10147C00464F7600F75BA679022E0BD0042E31D0A6
:10148C005E1EB3411B0308E0C022D200ECE78027AC
:10149C00BF01F0E75E4273411B07E6790196002617
:1014AC00B446019E012E02D1C026B600B44609688E
:1014BC00A5421AD10C68364E009A3440224313438D
:1014CC000B604B68334A13403B434B6043683249D3
:1014DC001A6893680B4061460B4393602968FFF7C9
:1014EC003FFFF7BD80235B01D7E7C0220E68D20017
:1014FC001640009AB24205D00E68284A1640009A4F
:10150C0016430E60C0264268B60111684A68324024
:10151C00974204D04A681F4E32403A434A604268B0
:10152C001F4E11680A683240934204D00A681D4E5F
:10153C00324013430B60C021436889001A689368DA
:10154C000B409C4505D0936813490B4061460B43F7
:10155C00936080224368D2011B689968114206D0BF
:10156C00019A032A09D09A680F490A4004E00199AC
:10157C00032902D199680A439A6021682B68994221
:10158C00AFD0FFF7EDFE23682B60AAE7544A0008A2
:10159C00FFE9FFEFFFCFFFFFFFFCFFFFFFF9FFFFAE
:1015AC0000100010FFEFFFEFFFBFFFFFF0B50600CC
:1015BC0047680469594885B0206002F089FD00280D
:1015CC0002D113204042A5E02068F96883681B68AB
:1015DC009847002800DA9DE00021386A03AA02F03F
:1015EC005DF9002800DA95E0039B00221979186850
:1015FC00FFF770FE002800DA8CE001227568336971
:10160C002C685B680193236893432360686802F03D
:10161C005FFD0028D5D06868A9688368DB68002B5B
:10162C0000D09847EFF31082012383F310880C212C
:10163C0023680B43236082F3108830000199FFF775
:10164C0007FF2B7D002B03D00823A2681343A36054
:10165C006B7D002B04D080226368120213436360FD
:10166C00AB7D002B04D0802263685202134363606D
:10167C00EB7D002B04D080226368920213436360DD
:10168C002B7E002B34D0264B9C4214D0254B9C42F5
:10169C0011D0254B9C420ED0244B9C420BD0244B9A
:1016AC009C4208D0234B9C4205D0234B9C4202D039
:1016BC00224B9C4230D173681A6880239168DB01FD
:1016CC000B43936022686B7E1D495B050A401343F4
:1016DC0023602268AB7E1B491B040A401343236022
:1016EC00EB7E002B04D08022A36812021343A3606C
:1016FC00012322681343236080239B03E2691A426F
:10170C00FCD08023DB03E2691A42FCD030007B6AF8
:10171C009847002005B0F0BD162053E7DC450008C3
:10172C00003801400044004000480040004C00409C
:10173C00005000400014014000180140001C014002
:10174C00FFFF1FFCFFFFE0FFF7B5436800901C682C
:10175C0003690D005B6801934B790A799C46887983
:10176C00012A3FD1022B57D9C02180230600C90082
:10177C009B01022800D177E004285FD00020824230
:10178C0004D0033A012A5BD9802040018027002233
:10179C007F01BB425ED1624552D102F0C9F8B04222
:1017AC004ED1EB79002B0DD0012B63D13F4B9C42DA
:1017BC0008D03F4B9C4205D03E4B9C4202D03E4B46
:1017CC009C423DD1012623682900B3430098236035
:1017DC00FFF73EFE002023681E43019B266006CDCA
:1017EC0006C3FEBD022A09D1022B23D98021060093
:1017FC00C900022827D080239B01BDE7022B1BD9EF
:10180C00060000210228F6D10021002A1BD18020DD
:10181C00110040050322BEE7C021C9006646274BD4
:10182C007600F35A06000228A6D1002A1CD180208B
:10183C004005ABE78021F0E70021EFE7002AA3D0B9
:10184C0086204042CDE7033A012AF9D980230020B3
:10185C0002269B01C0270222BF01BB429BD0013A4A
:10186C00002B98D0023296E7033A012AE8D90226D7
:10187C0000208BE7032BE3D10C4B9C42A2D00C4BEA
:10188C009C429FD00B4B9C429CD00B4B9C4299D0C2
:10189C000B4B9C4296D00B4B9C4200D192E70A4BCF
:1018AC009C4200D18EE7094B8AE7C04600380140C4
:1018BC000044004000480040004C0040544A0008DE
:1018CC00005000400014014000180140001C014071
:1018DC0070B50369C0225B680C001B68D2000B60FA
:1018EC008021436805001B68C9001B681340022255
:1018FC008B4204D01C4A9B185A425341DAB2C02185
:10190C00802022716B6889011B6800225B68400192
:10191C000B40834206D002328B4203D0013A002B9B
:10192C0000D0023262716B681B6818681968C0239A
:10193C00DB0019400D4B184001F0FAFFC022A071DA
:10194C006B6892001B689B681340094A9B185A42AB
:10195C005341DBB2E3716A6812689268520400D595
:10196C0003230020E37170BD00FAFFFF001000108C
:10197C0000FDFFFFF8B543680D001C68C02320680C
:10198C002168DB001940124B1600184001F0D0FF03
:10199C00042819D08022E3690020134213D0EFF3FE
:1019AC00108172B6030018009E4207DDE7691742EA
:1019BC0004D0E85C01332085DBB2F4E7002902D1C6
:1019CC0062B6BFF36F8FF8BD86204042FBE7C0467E
:1019DC0000100010F8B543680D001C68C023206887
:1019EC002168DB0019400E4B1600184001F0A0FFD7
:1019FC00042811D000232027082118009E420DDD59
:101A0C00E2693A420AD0A28CEA54E2690133DBB2B1
:101A1C000A42F2D02162F0E786204042F8BDC0466F
:101A2C0000100010F0B5040087B005694668304F0F
:101A3C00380002F04DFB002857D0BB6838001B68FB
:101A4C003169984700281DDB0021706805AA01F058
:101A5C0025FF002816DB059B002219791868FFF773
:101A6C0039FC00280EDBB368012620009847AC68CF
:101A7C00EA68AB68D2009B189C4205D3280002F0A0
:101A8C0076F9002007B0F0BD206802F021FB002899
:101A9C002BD023792068E288019383689C460369E4
:101AAC000293D0235B035340324202D1B0235B0339
:101ABC001343104A01991A400392029A1768320094
:101ACC008A4011003A008A43334202D00B003B4358
:101ADC001A001300029A019913606346039A1B685B
:101AEC0098470028CEDB0834C2E713204042C9E7F0
:101AFC00DC450008FFFFEFFFF0B58FB0019314AB8E
:101B0C001B780F000393436805691E6800900292CE
:101B1C00002A03D1019C002C00D1FEE0BB889B0461
:101B2C002FD4280001225242D317103000F01EFC93
:101B3C002B00039A4C336F601A70159B6B64169BC9
:101B4C00AB6406A90A00009B5B689C46009B1B6962
:101B5C000393AE4B13CB13C213CB13C212CB12C2D3
:101B6C0063460399BA8809681C6853059B0E8F421B
:101B7C0000D18CE00821083B8B4309D086246442B9
:101B8C00C5E0AB69002BCCD16B689F42C9D1D8E7BB
:101B9C001021636812B28B43002A00DA0B43636096
:101BAC0063469B4819698368DB68002B01D10524C7
:101BBC00E5E705AA98470028F9DB0123059A39685F
:101BCC001000D840884204D90133092BF8D11624CF
:101BDC00D5E740212268013B8A43226022680839FC
:101BEC008A439B0006A95B58134323600223BA88DF
:101BFC001A4203D122689A43226003E022689A4376
:101C0C0013432360BB8801225B0700D488E0236860
:101C1C0093431343236023687E4A13402360BB889D
:101C2C008022DB0600D47EE02368934313432360B9
:101C3C002368794A13402360BA68784B002A00D194
:101C4C0074E022681A4080239B0013430422236013
:101C5C00636893436360BB887149DB0700D475E00C
:101C6C0023680B402360BB886E4962685B059B0E42
:101C7C000A40082B00D06FE0E023DB0013438022E6
:101C8C0063606368520113436360039B1F60BB88EE
:101C9C005B059B0E082B62D1073B2800019A029929
:101CAC0001F049FF0123B26814001C4002941A424F
:101CBC0057D14023326813433360009B1F69386847
:101CCC00002850D12023726813437360019B002BB2
:101CDC0003D04023726813437360802372681343EC
:101CEC0073602E004C36337801222968002B46D0C5
:101CFC008B881C001440134202D02C6F002C06DB86
:101D0C002B689B889B0408D43378002B05D10023C7
:101D1C006B602800103000F007FB20000FB0F0BD06
:101D2C002368934376E72368934380E7BA88D20706
:101D3C0002D52268134089E722681A408023DB020F
:101D4C001343042223606368134383E782232268CE
:101D5C005B000A40134385E7F0231B018EE7022347
:101D6C009BE7327B9FE78368002BABD001210830C7
:101D7C0001F0E6FF3B68186902F09BF9A2E788883E
:101D8C000300134010423BD11A006F6DBA4225D1AB
:101D9C000022EF6DBA4229D1029C9C4200D21C0059
:101DAC00FA20400109686043FEF78CF90A220023EF
:101DBC000021C830FEF730FA02000B002800283052
:101DCC0000F0D4FA00281FD12B682C6C9B88DB0701
:101DDC0000D493E7002C00D090E78EE7D400A44603
:101DEC00286D0132604440681B18CFE7D400A4462C
:101DFC00A86D029C60444068013220180290C9E72B
:101E0C00012252421300D9E77424B8E6B047000807
:101E1C00DC450008FF3BFFFFFFDFFFFFFFFDFFFF7F
:101E2C00FBFEFFFFFFF0FFFF70B580251049114B43
:101E3C008C681B680E6810488A686D02002C08D1EB
:101E4C00002A11D11A002E4209D100681818801AE4
:101E5C0070BD002A0AD02E4201D1A242F5D90468E5
:101E6C00E41804600968F0E71C00F4E71A00F2E7D4
:101E7C0010E000E080050020740500200A4A0020D4
:101E8C00136A1B021B0A13629622084B52011A603A
:101E9C00074B084A1860084B5A600722986019686B
:101EAC000A431A607047C04600ED00E08005002030
:101EBC0074050020BF12000010E000E070B5FFF7C1
:101ECC00B3FF0C4B0C4A186811680C4C401810608E
:101EDC009621002225681A604901401BFEF7F2F892
:101EEC0096235B0143435B19236000F091FEFEF7E0
:101EFC0057FD70BD740500207C050020780500207E
:101F0C00F0B5334D334E85B0002953D0431C08D166
:101F1C0001222B6893432B60FF231B06336005B013
:101F2C00F0BD336801930027012848DCEFF31083E0
:101F3C00039372B6FFF778FF0022AB680293264B2F
:101F4C001C68264B04191A60254B1B680093E01A79
:101F5C0090423ADB96235B015F43224AC019190079
:101F6C008018FEF7AFF896235B015843009B1B1BB0
:101F7C0018188023DB00984200D218001A4B9842A4
:101F8C0000D91800002330600138A9686860AB6084
:101F9C00029B02985B1A1A19884202D2019A9B186A
:101FAC001A190D4B1A60039B002BB8D162B6BFF304
:101FBC006F8FB4E733680193431CB4D10B480C4BBF
:101FCC00984200DD1800471EB0E78020C000D9E71A
:101FDC0010E000E0800500207C0500207405002046
:101FEC0078050020BF12000080E8FF00A60D00005D
:101FFC00A70D000070B5EFF3108572B6084A094BB7
:10200C0014681B68E41AFFF70FFF0019002D02D1AA
:10201C0062B6BFF36F8F96214901FEF753F870BD7E
:10202C007C0500207805002070B5EFF3108572B6A2
:10203C00054B1C68FFF7F8FE2018002D02D162B684
:10204C00BFF36F8F70BDC0467C0500200C2070B5AF
:10205C00134D6B681840082808D00C38434258417F
:10206C00104B40421840104BC01870BD0F200F4948
:10207C009A0C02408C5CEA6A0D490240895CC022D1
:10208C008020520213404002834201D1064802E0F4
:10209C009342FBD10748FEF715F86043E5E7C046CD
:1020AC0000100240005A620200127A00104C000824
:1020BC00004C0008006CDC02020010B50120002A64
:1020CC0011D0094B094993429B410A685B428243F8
:1020DC001A430A600C681A000440A34201D00A6833
:1020EC0002405A40100010BD00366E010020024024
:1020FC0070B5EFF3108572B6064B9C6801F0F9FFD2
:10210C00002D02D162B6BFF36F8F2000FEF7D6FC14
:10211C0070BDC0468405002070B50A4E83009D59E1
:10212C00013084003359AB4200D870BD6B68002B72
:10213C0004D0280001F0E0FF0835F3E72B6898473E
:10214C00FAE7C0463C4A0008012270B5244B032034
:10215C0086B01A70FFF7E0FF00F028FE01F0ECFFEC
:10216C000420FFF7D9FF1F4C26001F4DAC420ED3A5
:10217C0000F008FBAE4220D300F014FBFEF708FA87
:10218C0001211A4A137B8B43137306B070BD636A2B
:10219C000593236A0493E3690393A3690293636928
:1021AC00019323690093E368A2686168206800F0DA
:1021BC0003F923685C653034D7E7B26AF36A511CC3
:1021CC0001D1591C05D011003068194303D101F01D
:1021DC00C4FF3036CEE70649183000F0A5FCF8E70E
:1021EC00BC050020B0470008B0470008D002002012
:1021FC008B42000810B5034A03480021121A01F063
:10220C0093FF10BDC00500205802002070B5782641
:10221C0001250400464301021148802209180020C0
:10222C0086B004950E350395053565430D4B059029
:10223C00029001900C48F6182D180C4B30000095AC
:10224C00520000F0B9F80422737B2C74934373731F
:10225C000134074BE402E418EE606C6006B070BD0C
:10226C00C00D0020580200208405002047410008C2
:10227C00C0050020F0B5002087B0FFF74DFF214BC3
:10228C0083F308882049214B0A6A00251A40C02391
:10229C001B0413430B62FEF7EBFBFEF7FDFC022263
:1022AC001B4B1C4EFF329A81B3605D6601F00FFF31
:1022BC000120FFF731FF0220FFF72EFF00F08CFA10
:1022CC00154C164B7461802205930123144E15494D
:1022DC000493D200330020000395029501950095DC
:1022EC0000F06AF804220700637B200093436373B9
:1022FC0001F073FF2800FFF789FF3200390020003E
:10230C00FEF7AEFCC00D002000ED00E0FFFF00FF6B
:10231C004803002084050020D0020020204C000837
:10232C0055210008C00E002070B50400EFF3108595
:10233C0072B601F0AAFF002808D00023036701F051
:10234C004CFF2900084800F0D7F970BDA268E3687B
:10235C0020009B1A591E8B419B180221A360103040
:10236C0002F00AF8EDE7C046BD05002013B50400E5
:10237C00EFF3108172B68068002808D00138A06095
:10238C00002902D162B6BFF36F8F002016BD10007A
:10239C00184307D1002902D162B6BFF36F8F10200A
:1023AC004042F3E7009201932200024800F07CF9CE
:1023BC00ECE7C046BD050020F0B587B005930300DF
:1023CC0058338365C365109B0727037304230025CB
:1023DC000732BA434373D2190F9BBA4383738B18DA
:1023EC000E0085601900C5738561C56104000493F6
:1023FC00FEF7BAFA049BC019B8431F1A0E9B3A0099
:10240C0002930D9B310001930C9B20000093059BC4
:10241C00FEF710FC044B65659B68AB4200D05B6E0D
:10242C003800636607B0F0BD8405002070B5040069
:10243C00002086B005900E98119D04900D98109E6A
:10244C0003900C9802900B9801900A980090200031
:10245C00FFF7B2FF2B00721C01D1013305D02B000A
:10246C00334305D1200000F05DF9200006B070BDAB
:10247C00200032002B000249183000F055FBF4E725
:10248C008B42000870B50E4D0E4BAC699C4201D0CE
:10249C00002C00D1EC68AB68002808D15A7BD2061E
:1024AC0005D1A269002A02D1DA897F2A05D89C427B
:1024BC0002D0200000F082FA23006B6170BDC04690
:1024CC00840500209C0500200D2210B582560400C6
:1024DC00437B002A04DA7F221340437301F041FE50
:1024EC00034B9868001B43425841FFF7CBFF10BDCC
:1024FC00840500200D2370B5C356417B002B26DBD1
:10250C00CB0624D18369002B21D1802252420A436D
:10251C004273114A114C9169A14200D00B00D16950
:10252C00002B04D1046041600860D0610CE00E25E2
:10253C000E2645579E57B5420AD0AE4208DD5A6862
:10254C0003604260106058600020FFF79BFF70BD75
:10255C009942E7D01B68E3E7840500209C05002026
:10256C00F8B504000E001025002A00D0083D637B4E
:10257C002B420FD12B435AB2002A17DB6373082D61
:10258C001BD00120FFF77EFFBFF35F8F6022637BC0
:10259C0093436373244B9B68A3423FD1EFF30583B2
:1025AC00002B3BD13000FEF7A5FAF8BD7F2213407B
:1025BC002000637301F0D5FDE1E7A368002B02D086
:1025CC00200001F0D6FD20002700183001F0BDFEE0
:1025DC005837A56DAF4201D0002D12D1124DAB680A
:1025EC009C42CED1EFF30583002BCAD00120FFF71C
:1025FC0049FF02220D4BFF329A810022AB605A66D2
:10260C00C2E7280001F0B5FD2800183001F09DFE4E
:10261C00002328002B67FFF76DFFDAE7002EC4D1EB
:10262C0062B6BFF36F8FC0E784050020480300201B
:10263C000D2270B582560400437B002A04DA7F22F7
:10264C001340437301F08DFD8023627B5B42134387
:10265C00134A637393691348834200D10023D169F1
:10266C00002B04D1206061600C60D4610CE00E255D
:10267C000E2665579E57B5420DD0AE420BDD5968FC
:10268C00236061600C605C609068001B43425841A1
:10269C00FFF7F8FE70BD9942E4D01B68E0E7C04636
:1026AC00840500209C050020F7B5009111000F4A0D
:1026BC000F4B9068089E099D1860EFF3108372B65B
:1026CC00370094680195200001F05EFD013702D1BE
:1026DC002B00013306D0200032002B0005491830A6
:1026EC0000F022FA0098FEF705FAFEBD84050020E2
:1026FC00A40500208B42000810B500290AD1EFF385
:10270C000580002807D1064B9A685B699A4202D073
:10271C00FEF7F0F910BD62B6BFF36F8FFAE7C04653
:10272C008405002010B5EFF3108472B60422437BAD
:10273C00134205D1002C02D162B6BFF36F8F10BDCE
:10274C0093434373FFF7D6FE21000248FFF7D4FFF3
:10275C00F5E7C046BD05002010B500280AD1EFF3FF
:10276C000580002807D1064B5A699B689A4202D013
:10277C00FEF7C0F910BD62B6BFF36F8FFAE7C04623
:10278C0084050020EFF3108172B6054B9A68D37B59
:10279C00013BD373002902D162B6BFF36F8F704730
:1027AC008405002010B5EFF3108472B6094B00209D
:1027BC009A68D37B0133D373FFF764FE002C02D1EC
:1027CC0062B6BFF36F8FEFF3108072B6FFF7C4FFE2
:1027DC0010BDC04684050020024B034A9A61DA61A1
:1027EC007047C046840500209C050020F8B5EFF327
:1027FC00108572B67F22194CA068437B134043733B
:10280C0001F0AFFC8022A3685242597B14480A4362
:10281C005A73A269824200D10022E169002A04D1D4
:10282C00186059600B60E3610CE00E260E279E5772
:10283C00D757BE420DD0B7420BDD51681A605960B4
:10284C000B6053600120FFF71DFE2800FEF752F9C4
:10285C00F8BD8A42E4D01268E0E7C0468405002047
:10286C009C0500200300F7B50B4304000D00002B62
:10287C0003D1FFF7BBFF0020FEBD4B1C2EDB4B1C16
:10288C0001D1831C2AD301F073FD2718EFF31083B9
:10289C00019372B6134E144BB0681860FFF714FE18
:1028AC00B06822002B001149183000F03DF91023BC
:1028BC00B2680198517B0B435373FEF71BF901F07F
:1028CC0057FD00233A0004001D00121BAB41AB4224
:1028DC0002DCD0D1AA42CED01000CDE702277F4235
:1028EC003F1BD3E784050020A40500208B42000881
:1028FC0010B50B000C00421C07D1013305D10A4B5B
:10290C00986801F076FC200010BD2100FFF7AAFFAB
:10291C0000210200C3170920801859410A22002304
:10292C00FDF736FCF0E7C04684050020014B9868A3
:10293C007047C0468405002073B5069D079E089C11
:10294C0000950196FFF7B0FE002C03D0024B9B685C
:10295C005B69236076BDC046840500200121044BD1
:10296C00044AC01A044BC0104343D1547047C046AC
:10297C00C0030020BD050020ABAAAAAAC28903008F
:10298C0000207F2A11D80A4A106800280DD00E2189
:10299C00084A595612680020914206DB5A7BD2062F
:1029AC0003D10548181A431E98410123184070475B
:1029BC00AC050020A80500205802002070B5182492
:1029CC000C4B05001E7C0C4B7443E418200001F0EA
:1029DC00BCFC0022094B28009A55FFF7CFFF0028BA
:1029EC0007D0074B20001A680649013AD31700F0AC
:1029FC009BF870BD84050020C0030020BD0500209D
:102A0C00AC0500206929000870B5EFF3108572B68B
:102A1C00104A114B94681868A04207D1FFF7CEFFFB
:102A2C00002D02D162B6BFF36F8F70BD002119600B
:102A3C00127C0A4B9B5C8B42F2D02000FFF79EFF6E
:102A4C000028EDD0637BDB0602D12000FFF7F0FD00
:102A5C002000E3E784050020A4050020BD0500202C
:102A6C0010B50648064A0749121A01F061FB064ADE
:102A7C000649074801F05CFB10BDC046BC000020B5
:102A8C0051020020784C000800000000784C00082F
:102A9C00BC000020002010B5034B1B68834201D101
:102AAC00FFF7A8FA10BDC046B005002030B50028CD
:102ABC000ED00B4B5B6898420AD00168002907D0F6
:102ACC000A694B690469456912196B410A614B61CA
:102ADC000368426813605A6000230360436030BD92
:102AEC001802002070B50E4B1E689E4203D1FFF7F2
:102AFC00D1FF0C4870BDFFF7CDFF002EF9D0326925
:102B0C0073690400C517121BAB41002BF1DC03D118
:102B1C00802109068A42ECD2D843C0171040E9E75D
:102B2C0018020020FFFFFF7FF7B5040016001F00FE
:102B3C00531C01D17B1C5BD0A160EFF3108301937C
:102B4C0072B6002F23DA7B1C01D1B31C1FD82D4B7E
:102B5C001868596802225242D317121A8B41921BE1
:102B6C00BB41002B04DC01D1002A01D1012200233E
:102B7C00254F226163613D68BD4200D100257E680E
:102B8C00002D0FD12760666034607C601CE0FFF77D
:102B9C0081FF0122002392197B410600C71792196D
:102BAC007B41E5E72869696922696369994202DC1E
:102BBC001FD190421DD9801A99416B6828616961B7
:102BCC00636025601C606C603B68BB420AD09C4211
:102BDC0008D10E4B1C68002C04D1FFF783FF210099
:102BEC00FFF78EF9019B002B02D162B6BFF36F8FFA
:102BFC00F7BD121A8B4122616361B542C2D02D68B8
:102C0C00BEE7C046D803002018020020B005002003
:102C1C00F0B585B0EFF3108372B60293304B1860A9
:102C2C00304B1C689C4200D100242F4B2C4D03933D
:102C3C00186859682B689C46002C39D06269266943
:102C4C00DB179A4202DC0AD1664508D91F002269BB
:102C5C0063696646921BBB412261636128E0F317EE
:102C6C0000960193009A019B801859410023002281
:102C7C001D4F22616361386079602000FFF716FFF9
:102C8C00029B002B02D162B6BFF36F8F2000A368AA
:102C9C009847EFF3108372B60293114B1A68921B8C
:102CAC001A60104B94461C689C42BED138687968F7
:102CBC006246D31712184B41002403992C600A600A
:102CCC004B60FFF70FFF2100FFF71AF9029BA3429D
:102CDC0002D162B6BFF36F8FFFF796FE05B0F0BD61
:102CEC00B005002018020020D803002010B5EFF327
:102CFC00108472B6FFF7CEFE02000649C3170868AF
:102D0C00496880185941002C02D162B6BFF36F8F0D
:102D1C0010BDC046D8030020F7B5846805000F002D
:102D2C00002C1DD06378012B28D12600603E737BCC
:102D3C009B0713D5300001F0C1FA0023082F01D1F5
:102D4C0004235B423367737BDB0607D12300483BCC
:102D5C001B68002B02D1300001F03FFA00232370D6
:102D6C007F210020EA68A860D3025B0E3B430B4036
:102D7C000D499B030A401A43EA60FEBD022BEDD1BC
:102D8C002378002BEAD02600143E33690193002BE4
:102D9C00E4D02000143001F0D8FA0023310001985F
:102DAC00336401F015FBD9E7FF3FE0FF10B5024893
:102DBC0000F031FC10BDC046254C00081FB502AC1C
:102DCC002200074B03CB03C201238022054906488E
:102DDC0000945B42D20000F009F9002004B010BD51
:102DEC00D0470008C0120020E0030020F0B5050019
:102DFC0087B0EFF3108772B62E00AC6F9036002CB4
:102E0C0013D10221300001F0CEFA00285DD100234D
:102E1C002A00029301235B42DC17390000930194D2
:102E2C0080323C48FFF788FDE3E72368EA6FAB6725
:102E3C00944200D1EB6702223368134333600423BE
:102E4C00E2689A43033B1343E3606368002F46D068
:102E5C0020009847EFF31083059372B6E3680121C5
:102E6C001A008A43100908423DD1E260E3689A07D0
:102E7C001AD502229343E360274B1868002813D01D
:102E8C000021026800280FD04768BC4239D1026883
:102E9C00002930D159681A60814200D15A60002350
:102EAC0003600830FFF740FA022233689343059A17
:102EBC003360DB05DB0F002A02D162B6BFF36F8FE4
:102ECC00002B96D1FFF792FC93E72C00883400225C
:102EDC000121200001F01BFA0028F8D197E762B617
:102EEC00BFF36F8FB4E711229343E36020001030DF
:102EFC00FFF71AFABAE70A605A688242CFD15960D2
:102F0C00CDE79446002A01D011688C4601001000D0
:102F1C006246B7E7BE050020B4050020F7B5C368CC
:102F2C000D00590801220F000400174011424BD12B
:102F3C009B0813421DD12B68002B01D183682B6099
:102F4C000127E3683B4202D0A368FF192B602E686F
:102F5C00002E47D03200244B90329B680192B34232
:102F6C0022D00121126893080B400A4204D1132786
:102F7C007F4200232B6015E0002B25D1D3080B409A
:102F8C00002B21D100232360F36F002B27D1F46792
:102F9C00B467300001F013FA0423E2681343E360D2
:102FAC002B68A3603800FEBD01F0CEF8019B012216
:102FBC001B6800280AD1D90811401342D7D0002928
:102FCC00E0D09B081342DDD11027D1E799081140BE
:102FDC001342CCD00029F7D1DB081340D0E71C609A
:102FEC00F467D6E71627C3E784050020F0B5040084
:102FFC0000202600A067E0678036201D89B0C667D8
:10300C000E9D0430C6678030006040600120002DAA
:10301C0007D0287946427041FF264042B043023027
:10302C00FF3026009036306001267642F717069660
:10303C00079700260E48039304960300029620007F
:10304C0001960094FFF7F2F9B5420CD02968B14211
:10305C0002D0200001F07EF86B79002B03D0012305
:10306C00227B13432373200001F077F809B0F0BDE5
:10307C00F92D0008F0B5436893B00390089383785A
:10308C0015009B0700D4F8E0002301930E78002E66
:10309C006AD0252E0DD04B1C0993019B0133019353
:1030AC000399089BF0B29847002800DADFE00999F1
:1030BC00ECE74E788B1C0993252EEED000230421CF
:1030CC001C00099A0293079309921F2C2ED83000EA
:1030DC00203810280AD8FCF7EBFF1D09092709092D
:1030EC00091E0909091B0925090918003300303B81
:1030FC00092B29D92A2E32D108CD600622D4002BD7
:10310C0029DB20200793044305E001231C4302E044
:10311C0002231C430C43099B01321E78002ED3D191
:10312C0009922DE00823F1E71023EFE77F2C1ED83E
:10313C003300303B092BDDD8600605D50A20029EF2
:10314C007043C3180293E6E70A20079E7043C31826
:10315C0007932023DAE75B4207932823D6E72E2E2A
:10316C0005D140231C42D1D0019813B0F0BD6C2E78
:10317C002DD027D8682E31D06A2E32D04C2E30D09C
:10318C00029B002B03DA40239C4300230293202351
:10319C0033431A00653A022A01D9612B24D1072244
:1031AC00EB1D934308331D00AB4F0292240753D5FC
:1031BC00019A029B16009C18B4424FD1079B029AAD
:1031CC009E1A82E1742EA6D07A2EA4D0D8E7802342
:1031DC001C429BD080208000044397E780235B0037
:1031EC00F6E7A0239B0091E730006338122800D942
:1031FC00E3E0FCF75DFF0A46E2E2E2E246E2E2E2ED
:10320C00E2E2F3DDE2E211E2AD0004CD0CAB1A70A8
:10321C0001230CAF0293C9E780CD002F00D18F4F53
:10322C000299630601D401214942380001F0DFF80C
:10323C000290BBE720200399089B9847002816DBD7
:10324C00013C029BA342F5D3079A019B944663442D
:10325C001B1B01930794ABE7079CF2E7019B0399B7
:10326C00FB1A985D089B984701360028A4DA039B4B
:10327C009A7804231343039A937001235B420193BE
:10328C0072E723063FD5A30537D5072207359543AB
:10329C002F000CCF04920593102325009D43059B12
:1032AC00002B3ADA0499059A00244B42944104937A
:1032BC0005948023DB001D43ADB20CAC0A230498AB
:1032CC000599220001F09EF8041B6B0665D50123BD
:1032DC002A009A431300029AA24200DCA4E0002EBA
:1032EC0000D19CE01022290011400B91154200D016
:1032FC009CE0029A1D0006921EE02F0008CF04935A
:10330C00DB170593C8E72F0008CFE205F7D5A20518
:10331C0001D55BB2F3E71BB2F1E7049B059A1343AB
:10332C00CBD16306C9D5029B002BC6D111339C436C
:10333C00029B25001C0006932A00494B1A400B9255
:10334C001D4277D0069B0133069300230B9371E04B
:10335C0010239C43063B9C46802322001A40069275
:10336C001C4242D021008133FF3319401C4239D01A
:10337C000722EB1D93431F0003CB083703000B43BD
:10338C0046D1250016339D43630644D5029B002B82
:10339C0041D117339C432500029C10232A001A406C
:1033AC000B921D4256D0631C002E42D022003FE0EF
:1033BC00102378269C461C43CEE7782B04D1102290
:1033CC009B1B1A439446C7E725200399089B9847F3
:1033DC00002800DA4BE7019B023360E60823002645
:1033EC009C46B9E72F0001CFC8E72F0080222100AF
:1033FC0008CF5200180011401442BFD08022210087
:10340C009200114098B21442B8D00699D8B2B5E7E0
:10341C0006239C4325000CAC6346220052E7112383
:10342C009D43029B069387E71D00B6E71D00029A99
:10343C00931C06932B072AD4EB0709D5079B069AF6
:10344C000294934204DD9B1A1B190293079B06936B
:10345C00069B10E006946FE7704C0008694C00085E
:10346C000604000020200399089B9847002800DAE6
:10347C00FDE60A9B01330A930A9A079B9342F1DCFF
:10348C00069A019B9B1A0A9A9B18019306920B9B16
:10349C00002B25D030200399089B9847002800DA90
:1034AC00E5E6019B002E12D101330193019E029B94
:1034BC00019A9B189B1BA34220DC2500002D25D1D3
:1034CC003D00079B069AA4199E1A019431E0023321
:1034DC000193F0B20399089B98470028E6DAC6E6F8
:1034EC00174B1D42E2D02020AB0700D50B306D05E9
:1034FC0000D52D20019B01330193EBE7302003997C
:10350C00089B013698470028D1DAB0E60CAB013D98
:10351C00E85C0399089B98470028CFDAA7E6019B43
:10352C002020013301930399089B9847002800DA67
:10353C009DE6019AA3199B1A002BF0DCB7E5C04657
:10354C00060400007047C9004018408840087047C6
:10355C00F8B50D000400FFF7F6FFFCF7FBFD1F218B
:10356C00091A8A00A218EB0010691F1D0633E7190F
:10357C00E318AEB2002808D101308840E16801435D
:10358C00E16015613E801E80F8BDC1000431625AB5
:10359C003A80D200A2181880D6806652F4E707232E
:1035AC00F7B50027043ACC1D89189C4399430B1B93
:1035BC00DE080460A660E7603000009301912425CA
:1035CC00FCF7C8FD20222D1A121A20003900920097
:1035DC00103000F0A7FF0123AD000735ED086A009D
:1035EC001A436280711BEA00A0184B0027804380AD
:1035FC00009BA552E218019B578019800123F6000D
:10360C00A61972882900134373802000FFF7A0FFCE
:10361C00F7BD002070470FB407B504A901C901918B
:10362C00FDF722F903B008BC04B01847704710B579
:10363C00012801D1EFF30583FEF75AFD10BD10B53B
:10364C0001000068FFF7F3FF10BD10B50021012049
:10365C00FFF7EDFF10BD10B5FDF764F9FEF7CAFDDD
:10366C00FFF7FEF9FDF71EFBFEF704FE002802D162
:10367C0062B6BFF36F8F7047BFF34F8F30BF62B628
:10368C00BFF36F8F704710B5FDF734FB002010BDF2
:10369C000120884070477047436800205B681B69B5
:1036AC000B60704743685B68586942401140414069
:1036BC00596100207047436800205B68996170472E
:1036CC00436800205B6899627047436800205A6821
:1036DC0053694B405361704710B5036998680028D3
:1036EC0021D088421BD10868DC689860A14200D1C7
:1036FC00D86000200860824206D09A680A60DA68B6
:10370C009960002A00D1D960002010E0814206D1D6
:10371C0008682060D8688142EBD1DC60E9E70400DE
:10372C0000680028F2D1002AE7D11620404210BDD3
:10373C00F0B50126302485B0029333001440019477
:10374C0094098B4034408C4040680236456803270E
:10375C009D432C4344608468A4461C008C40664303
:10376C00F5430395D5093D4065432F006546B543A8
:10377C002F4387600327520A3A406243C568B5431A
:10378C002A43C260019A202A0CD1072914D823009D
:10379C008B408B400F215943026A8A4302994B4359
:1037AC0013430362019B02681B095C43039B1A4091
:1037BC001443046005B0F0BD0F211B0A5B435B434F
:1037CC005943426A8A4302994B431A434262E9E7DE
:1037DC00130070B59A0318D59A070FD55A072CD534
:1037EC005022DC060CD58024A400224345681C031F
:1037FC0019D501248C406B689C610EE01022F0E717
:10380C009C06F3D58024E400EFE73022DC0304D5DA
:10381C00DA060FD49B06DB0F9A0240680023FFF7F1
:10382C0087FF002070BD5B03F7D501248C406B68CB
:10383C009C62F2E780229200EFE786204042F1E79B
:10384C0070B50B0089680500002903D05E680C6810
:10385C00002900D170BD8B681A002A402B4202D07F
:10386C0030004B689847231E00D0236821001C00B1
:10387C00EEE7F8B5050040681F000E001400FFF7D6
:10388C0057FF112F06D101236A68B34052682405F3
:10389C0002D593610020F8BD9362FBE730B5036855
:1038AC00136005790468ED006419A34202D3022069
:1038BC00404230BD5C798C4201D00833F0E70020E7
:1038CC00F7E74068CB0300681B0D1B181F20014055
:1038DC001E3888401B680340591E8B410020137012
:1038EC0070474268CB0312681B0D9B181F221140B6
:1038FC001E3A8A40186802431A60002070474268DA
:10390C001F20CB0301401E38884012681B0D9B18EA
:10391C001A6882431A600020704770B50D000400CD
:10392C00FFF7DFFF29002000FFF7E9FF002070BD43
:10393C008022030052010800934207D080225205D6
:10394C00934207D14342584101307047434258419A
:10395C000330FAE7434258410230F6E7012210B532
:10396C00436802211B68D869DC69C0081040144206
:10397C0000D00843DC6904220C4200D01043D96902
:10398C00114201D0202210438022D96952001142E9
:10399C0002D008211A620843C20701D508221A6214
:1039AC00820701D501221A62420701D502221A624E
:1039BC00820601D504221A6210BD43681A68EFF31F
:1039CC001081012383F3108810683F330343136085
:1039DC0081F31088704743681A68EFF31081012354
:1039EC0083F31088402013688343136081F310889D
:1039FC00704743681A68EFF31081012383F3108832
:103A0C0010681F330343136081F3108870474368B9
:103A1C001A68EFF31081012383F3108820201368B8
:103A2C008343136081F31088704743681B68D8691F
:103A3C008006C00F70470120704703699960DA60F7
:103A4C00704710B502699368002B01D0D168984774
:103A5C0010BD002210B511001C20FDF7C1F81C2070
:103A6C00FDF7B2F810BD43681B68D8694006C00F5B
:103A7C007047436800201B68DA69120602D5186883
:103A8C004006C00F7047802210B543681B68D86988
:103A9C001042FCD0EFF3108072B6DC69144205D1F1
:103AAC000028F4D162B6BFF36F8FF0E719850028B8
:103ABC0000D010BD62B6BFF36F8FFAE720224368C7
:103ACC001B68D969114203D019680120114206D133
:103ADC00DA690020520602D518684006C00F7047FC
:103AEC00082243681B68D869104200D01A62DA6950
:103AFC00920603D500209B8C0B707047012040422E
:103B0C00FBE770B50C0005001600190020680028B2
:103B1C0001D1306008E02B685868884205D3FCF767
:103B2C00D1FA30602B68186870BD08332B6023689D
:103B3C00013B2360EAE770B5040015001E00002964
:103B4C001FD101650023220021002000636564322F
:103B5C00330054315030FFF7D4FF2066002D16D1BE
:103B6C00A5650023220021002000E3656C323300A0
:103B7C005C315830FFF7C5FF0023A0662364236730
:103B8C0070BD0B680365002BDCD04B68DBE72B6842
:103B9C00A365002BE5D06B68E4E710B50B680C004F
:103BAC009B880A6E5B059B0E082B25D1131E03D038
:103BBC004B6E002B00D01378DBB20373636E002BBB
:103BCC0013D0013B6366002B10D1236D2200083308
:103BDC002365636D2100013B200063650123643282
:103BEC0054315030FFF78DFF206610BD236E002B33
:103BFC00FBD001332366F8E7131E06D04B6E002B67
:103C0C0003D0537811781B020B439BB28381636EF4
:103C1C00002BEAD0013B6366002B0DD12200210062
:103C2C002000236D643208332365636D5431013BEE
:103C3C00636550300223D5E7236E002BD5D00233B9
:103C4C00D8E710B50C0022688B6E9288C96E5205AD
:103C5C00920E082A2BD1027BD2B2002B02D0002963
:103C6C0000D01A7023689B88DB0702D5236F0133C1
:103C7C002367E36E002B13D0013BE366002B10D1BE
:103C8C00A36D22000833A365E36D2100013B2000E6
:103C9C00E36501236C325C315830FFF732FFA066CC
:103CAC0010BDA36E002BFBD00133A366F8E7C068F0
:103CBC00002B05D0002903D082B2120A18705A705A
:103CCC0023689B88DB0702D5236F01332367E36EE0
:103CDC00002BE5D0013BE366002B0DD12200210027
:103CEC002000A36D6C320833A365E36D5C31013B9E
:103CFC00E36558300223D0E7A36E002BD0D00233FB
:103D0C00D3E710B5002203211920FCF769FF192015
:103D1C00FCF75AFF10BDB82281685200030082B034
:103D2C00002011420AD09A68520605D5DA68019231
:103D3C00019A9B680193019B0520404202B0704799
:103D4C00020010B50B001179012214008C402100E7
:103D5C000068046924680C4200D05340002B03D047
:103D6C008368DB68984710BD83681B69FAE710B558
:103D7C0003680400002B0AD09A68002A07D018693F
:103D8C0000F097F9206800210830FFF7D9FFA369EC
:103D9C00002B04D1636020001030FEF7C5FA10BD73
:103DAC0010B544680069FFF7E2FF4021226800204B
:103DBC0013688B43136010BD8022F0B5436805690E
:103DCC001C680600636885B0934363606368403A7F
:103DDC00934363606368203A9343636001230091CB
:103DEC00A2681A4201D0227BFAE782222368520091
:103DFC00134093421AD18023A2681A42FCD137692E
:103E0C003B68002B12D09A68002A0FD09988802228
:103E1C000800520110400190114207D1186900F0BE
:103E2C0048F9386801990830FFF78AFFA3689B06A8
:103E3C0006D54022A3680393039B23689343236016
:103E4C002B689B88DB0403D44022236893432360B4
:103E5C002B004C331B78002B07D1009B2B642800C4
:103E6C002830FEF761FA05B0F0BD6B6C002B0CD05E
:103E7C002A689288D20704D5009A002A01D12A6FA9
:103E8C0000923000AA6C009998472B689A8880237E
:103E9C0011009B0119401A42E5D1696028001030CD
:103EAC00DFE7F7B5476806003B7D04693D68019381
:103EBC00002B02D02B685B0632D52800FFF72BFFB6
:103ECC00011E03D03000FFF777FF29E0616E002957
:103EDC0004D1E36E002B01D10021F3E723689A880B
:103EEC0001231A422DD101990222002919D0AA6866
:103EFC001A4203D021002800FFF7A3FEAB689B07F2
:103F0C0003D521002800FFF748FE3868FFF703FFB0
:103F1C00011ED7D1636E002B02D1E36E002BDBD0D8
:103F2C00F7BDAB681342FCD028002100FFF735FE2B
:103F3C000123386882681A42FCD02100FFF781FE09
:103F4C00E3E7A86884460220634603426FD0002949
:103F5C006DD05205216E920E082A4FD10A782A7321
:103F6C00626E002A13D0013A6266002A40D1012306
:103F7C00226D08322265626D013A626522002100D1
:103F8C002000643254315030FFF7BBFD2066012114
:103F9C00AB680B42B9D0A26E002AB6D0E36E002BF0
:103FAC00B3D023689B885B059B0E082B4BD12B7BD6
:103FBC00137023689B880B4202D0236F5B18236716
:103FCC00E36E002BA1D0013BE366002B34D1A36D33
:103FDC000833A365E36D013BE36501232200210057
:103FEC0020006C325C315830FFF78BFDA0668CE7FB
:103FFC00236E002BCBD001332366C8E74B780A78AD
:10400C001B021343AB81636E002BC0D0013B636674
:10401C00002B07D1236D08332365636D013B63656A
:10402C000300ABE7236E002BB1D00233E4E7802210
:10403C006B6893436B60AAE7A36E002B00D164E717
:10404C000133A36661E7E86883B21B0A10705370F2
:10405C0023689B880B4202D0236F01332367E36EE6
:10406C00002B00D151E7013BE366002B07D1A36D78
:10407C000833A365E36D013BE3650223AEE7A36E52
:10408C00002B00D141E70233DBE71FB5079C0294FC
:10409C00069C019401240094FDF72EFD04B010BD84
:1040AC001FB50024029401940094FDF725FD04B083
:1040BC0010BD70B5041E09D0FDF7B6FF3023050006
:1040CC005C43FDF7B1FF401BA042FAD370BD7047B3
:1040DC00002809D00123C26800205178194202D06F
:1040EC0010784242504118407047EFF3108372B67B
:1040FC00FEE710B5FFF7F9FF10B518C8002B06D175
:10410C0000200123E26851780B43537010BD20004E
:10411C0098470028F4D0C317C0185840FF2800DD7A
:10412C00FF20E3681870ECE710B500F0FBF910BD48
:10413C0010B500F0EEF910BD704710B5EFF3108319
:10414C0072B6FFF799FAF9E7EFF30580431E984131
:10415C00C0B2704758204042704710B5FEF7E2FAE3
:10416C0010BD0368426813605A600023036043600B
:10417C00704710B50400FFF7F4FF0222637B9343F2
:10418C0063730023A36010BD70B504000D00FEF72F
:10419C009BF90223627B13436373002D1CD0A56033
:1041AC002B689D4209D16B68256063601C606C6054
:1041BC0012E06A689A42F6D01B68002BF3D00E22EC
:1041CC000E21A25659568A42F3D09142F1DD5A681B
:1041DC002360626014605C6070BD10B5EFF31084F6
:1041EC0072B6FEF787F9002C02D162B6BFF36F8F5F
:1041FC0010BD10B50400183000F0A7F8EFF31081D3
:10420C0072B6607B102302001A40184205D00029B8
:10421C0002D162B6BFF36F8F10BD2000FEF7A0F97C
:10422C00FAE710B5EFF3108472B68368002B01D057
:10423C00FFF79FFF002C02D162B6BFF36F8F10BD4A
:10424C0070B504000E00EFF3108572B62823427B84
:10425C001A420ED18368002B01D0FFF78AFF04228B
:10426C00637B002E00D01422934320006373FEF76F
:10427C0041F9002D02D162B6BFF36F8F70BD10B53E
:10428C0001211838FFF7DCFF10BD70B5EFF3108576
:10429C0072B60468A0420FD0002C06D02000FFF7A5
:1042AC0068FF2000183000F050F8002D02D162B6E3
:1042BC00BFF36F8F200070BD0024F6E710B504002B
:1042CC00FFF7AFFF2000183000F03FF810BD10B51D
:1042DC00EFF3108172B60122037B13420BD000293D
:1042EC0002D162B6BFF36F8F62B6BFF36F8F042338
:1042FC00181C02DF10BD437B1B0705D50029F9D123
:10430C0062B6BFF36F8FF5E7FEF72AF9F2E7030009
:10431C0070B5EFF3108572B604680020A3420ED07E
:10432C0084420CD0216762612000FFF722FF20003D
:10433C00183000F00AF82000FEF7DCF80120002D00
:10434C0002D162B6BFF36F8F70BD10B5EFF310845E
:10435C0072B60368002B08D0FEF7A8FB0020002CD7
:10436C0002D162B6BFF36F8F10BD16204042F6E744
:10437C0010B5FEF7BBFC10BD030010B5EFF31084B5
:10438C0072B60068834208D00368426813605A60B2
:10439C00002303604360FEF7BFFC002C02D162B621
:1043AC00BFF36F8F10BD012230B5140003688C4031
:1043BC001D00CB40A54305601800104030BD10B562
:1043CC00002804D0002280301100FFF7A0FF10BDA0
:1043DC0013B501900800EFF3108472B601A9FEF733
:1043EC009DFD002C02D162B6BFF36F8F16BD03008A
:1043FC0041188B4202D01A78002A01D1181A704742
:10440C000133F6E7F0B50D003721C91A8FB0C9B2E8
:10441C000D911F2104000B400C930C99E3B2082959
:10442C0055D0102900D164E0E907600808436908F9
:10443C0006900791A008A9070843A90808900991BC
:10444C00089E099F06980799801979410E07B44672
:10445C00060900966646009F37430E0900970196A1
:10446C00009E019F801979410E06B4466746060AE4
:10447C003E4302960E0A0396029E039F80197941D1
:10448C000E04B4466746060C3E4304960E0C059685
:10449C00049E059F8019794100260A910B960A9E6D
:1044AC000B9F801979414E07CD080521C408344370
:1044BC00614349005B1ADBB2092B12D901200021A0
:1044CC000A3B24184D41DBB21DE00200A5E7072191
:1044DC000B4069078C466646E008E9080643340041
:1044EC000D00303313702300501C2B43EDD10FB053
:1044FC00F0BD0F210B4029078C466646200929097F
:10450C00064334000D00092BEBD90D99CB18DBB207
:10451C00E7E7002310B59A4200D110BDCC5CC4541F
:10452C000133F8E703008218934200D170471970E9
:10453C000133F9E70148006870470000800400204F
:08454C001CBDFF7F010000000F
:10455400110900080000000049100008DC450008AB
:10456400D50800080000000000000000F045000825
:10457400AD1200087C460008AD1200086846000829
:10458400AD12000854460008910D000804460008C6
:10459400AD12000840460008AD1200082C46000881
:1045A400AD12000818460008B91500089046000826
:1045B400AD11000800000000891E00080000000082
:1045C400290D000800000000C92D000800000000AB
:0845D400311A0008A44600089A
:1045DC00614B000800000000384800083D02002034
:1045EC0000000000C24B00083049000834490008A4
:1045FC004B02002000000000434B000800000000AC
:10460C00000000003B020020940400206E4B0008C8
:10461C0054480008CC4800083F0200201405002034
:10462C007C4B000868480008CC4800084102002078
:10463C00240500208A4B00087C480008CC48000860
:10464C004302002034050020984B000890480008D5
:10465C00CC4800084502002044050020A64B000869
:10466C00A4480008CC48000847020020540500204C
:10467C00B44B0008B8480008CC4800084902002098
:10468C0064050020D34B00084449000894490008F5
:10469C004D02002084010020E34B0008E84900088B
:0C46AC00304A00084F0200209C01002052
:1046B80000000000573600080000000057360008C8
:1046C80000000000573600080000000057360008B8
:1046D8000000000057360008414B00084D0D000847
:1046E8003F4B00084D0D00083D4B00084D0D0008DC
:1046F8000000000057360008000000005736000888
:104708000000000057360008000000005736000877
:104718000000000057360008000000005736000867
:104728000000000057360008000000005736000857
:104738000000000057360008000000005736000847
:104748000000000057360008000000005736000837
:104758000000000057360008000000005736000827
:104768000000000057360008000000005736000817
:104778000000000057360008A4460008AF3E0008B5
:1047880000000000573600080000000057360008F7
:10479800904600084F3A000800000000573600080D
:0847A800000000005736000874
:1047B00000000000080000001000000018000000C9
:1047C0002000000028000000300000003800000039
:1047D000604C0008000100007C4600080400000056
:1047E0006846000800000000544600080100000070
:1047F0005446000800000000684600080C00000055
:10480000684600080B000000684600080100000030
:10481000684600080F000000684600080E0000000F
:10482000684600080D0000007C4600080C000000EF
:104830007C4600080B000000010F0008310F000843
:1048400000000000B10F0008151000080000000073
:10485000550F0008FFFF000000140048050000008D
:104860001400000000004000FFFF0000001000489E
:10487000040000001400000000002000FFFF000002
:10488000000C0048030000001400000000001000AD
:10489000FFFF0000000800480200000014000000B4
:1048A00000000800FFFF00000004004801000000B5
:1048B0001400000000000400FFFF0000000000489A
:1048C000000000001400000000000200DD370008B6
:1048D000A5360008B1360008C3360008CD360008FA
:1048E000D736000801120008E53600080000000075
:1048F0007C46000868460008544600084046000808
:104900002C460008184600080000000000000000C7
:104910000000000000000000000000000000000097
:104920000000000000000000000000000000000087
:1049300000100240CF380008EF3800080B3900089B
:104940002739000800440040F0450008110200002B
:104950006C49000801000000000000000000000099
:1049600000000000744900085F3A00081C000000C5
:10497000000002007C490008010000008449000892
:104980000200000041000000000200006100000081
:1049900000000000ED3A0008933A00086939000869
:1049A00055170008DD18000881190008E1190008F2
:1049B000C7390008E33900087F3A0008FF390008CA
:1049C0001B3A0008733A0008373A0008A913000898
:1049D00001140008C93A0008433A0008473A0008A1
:1049E0007C4600080F00010000300140084A000822
:1049F0000F3D000801000000004A00080000000010
:104A00001800000000100000104A0008010000001B
:104A1000184A000803000000A00000008005000004
:104A2000C000000000040000E000000000040000DE
:104A3000AD40000897400008AD3D0008544500080F
:104A400054450008BC450008C4450008DC45000882
:104A5000DC450008001000000030496E697469618F
:104A60006C697A696E672E2E2E0A004572726F721B
:104A70003A2053504920646576696365206E6F74EF
:104A800020666F756E64206F72206E6F7420726581
:104A9000616479210A004572726F723A2047504969
:104AA0004F20706F727420666F7220627574746F1D
:104AB0006E202564206E6F74207265616479210A0E
:104AC00000496E697469616C697A6174696F6E20FE
:104AD000636F6D706C6574652E20456E74657269C8
:104AE0006E67206D61696E206C6F6F702E2E2E0ABE
:104AF0000050313A20583D25642C20593D25642032
:104B00007C2050323A20583D25642C20593D2564A4
:104B10000A00535049207772697465206661696C98
:104B200065643A2025640A005350492073656E7409
:104B30003A203078253031366C6C580A00040C026B
:104B4000020002696E746572727570742D636F6E07
:104B500074726F6C6C657240343030313034303088
:104B6000007263634034303032313030300067706F
:104B7000696F403438303031343030006770696FDD
:104B8000403438303031303030006770696F403435
:104B900038303030633030006770696F40343830FF
:104BA0003030383030006770696F40343830303022
:104BB000343030006770696F403438303030303016
:104BC000300072657365742D636F6E74726F6C6CF8
:104BD00065720073657269616C4034303030343412
:104BE0003030007370694034303031333030300051
:104BF000000000000000000001020304060708098D
:104C00000102030405060708090A0B0C0D0E0F101C
:104C100002030405060708090A0B0C0D0E0F1010FD
:104C20006D61696E002A2A2A20426F6F74696E676F
:104C3000205A6570687972204F53206275696C64E0
:104C40002076332E372E302D323533362D67636381
:104C500063343335376630613263202A2A2A0A00EA
:104C6000737973776F726B7100286E756C6C2900A5
:084C70002A666C6F61742A00D2
:104C780001000000020000000F0000000100000019
:104C88000400000010000000DF0100007F020000A7
:104C9800500000008C000000F0000000A0000000A0
:104CA80022010000C80000005E010000DC000000D6
:104CB800DC000000040100002201000018010000CF
:104CC8005E01000004010000A401000018010000BA
:104CD800900100008C00000030020000A0000000DD
:104CE8000000000040010000A0000000DF010000FB
:104CF8008200000018010000A00000004001000030
:104D0800E0010000400100007F020000DF01000018
:104D1800E001000018010000FE0100004001000051
:104D28001F360008710900080000000093360008CB
:104D380000000000000000000000000094010020B6
:104D4800000000000000000000C201000001030094
:104D58000000000000000000E04900080100000019
:104D6800AC010020AC0100200000000001000000A0
:104D7800BC010020BC010020C4010020C4010020A7
:104D88000000000001000000D4010020D401002030
:104D9800000000000000000000000000000000000B
:104DA80000000000000000000000000000000000FB
:104DB80000000000000000000000000000000000EB
:104DC800000000000000000000127A001802002015
:104DD80018020020FA00FA00FA003200010101FF6F
:0F4DE800FFFFFFFFFFFFFFFFFFFFFFFFFFFFFFCB
:104DF70000000000000000000000000000000000AC
:064E0700000000000000A5
:044E0D0015E015E0B7
:0400000508000AA144
:00000001FF
